{
  "_format": "hh-sol-artifact-1",
  "contractName": "SafeMock",
  "sourceName": "src/tests/mocks/SafeMock.sol",
  "abi": [
    {
      "inputs": [
        {
          "internalType": "address",
          "name": "token",
          "type": "address"
        },
        {
          "internalType": "address",
          "name": "to",
          "type": "address"
        },
        {
          "internalType": "uint256",
          "name": "amount",
          "type": "uint256"
        }
      ],
      "name": "approveToken",
      "outputs": [],
      "stateMutability": "nonpayable",
      "type": "function"
    },
    {
      "inputs": [
        {
          "internalType": "address",
          "name": "pool",
          "type": "address"
        },
        {
          "internalType": "address",
          "name": "token",
          "type": "address"
        },
        {
          "internalType": "uint256",
          "name": "amount",
          "type": "uint256"
        }
      ],
      "name": "borrowFromPool",
      "outputs": [],
      "stateMutability": "nonpayable",
      "type": "function"
    },
    {
      "inputs": [
        {
          "internalType": "address",
          "name": "target",
          "type": "address"
        },
        {
          "internalType": "bytes",
          "name": "data",
          "type": "bytes"
        }
      ],
      "name": "executeCall",
      "outputs": [
        {
          "internalType": "bool",
          "name": "success",
          "type": "bool"
        },
        {
          "internalType": "bytes",
          "name": "result",
          "type": "bytes"
        }
      ],
      "stateMutability": "nonpayable",
      "type": "function"
    },
    {
      "inputs": [
        {
          "internalType": "address",
          "name": "target",
          "type": "address"
        },
        {
          "internalType": "bytes",
          "name": "data",
          "type": "bytes"
        }
      ],
      "name": "executeCallWithValue",
      "outputs": [
        {
          "internalType": "bool",
          "name": "success",
          "type": "bool"
        },
        {
          "internalType": "bytes",
          "name": "result",
          "type": "bytes"
        }
      ],
      "stateMutability": "payable",
      "type": "function"
    },
    {
      "inputs": [
        {
          "internalType": "address",
          "name": "pool",
          "type": "address"
        },
        {
          "internalType": "address",
          "name": "token",
          "type": "address"
        },
        {
          "internalType": "uint256",
          "name": "amount",
          "type": "uint256"
        }
      ],
      "name": "supplyToPool",
      "outputs": [],
      "stateMutability": "nonpayable",
      "type": "function"
    }
  ],
  "bytecode": "0x608060405234801561001057600080fd5b50610947806100206000396000f3fe60806040526004361061004a5760003560e01c8063412c15b21461004f578063bca8c7b514610078578063bcbeb91d146100b6578063c94ac19f146100e7578063da3e339714610110575b600080fd5b34801561005b57600080fd5b50610076600480360381019061007191906104c9565b610139565b005b34801561008457600080fd5b5061009f600480360381019061009a9190610581565b6101b3565b6040516100ad92919061068c565b60405180910390f35b6100d060048036038101906100cb9190610581565b610231565b6040516100de92919061068c565b60405180910390f35b3480156100f357600080fd5b5061010e600480360381019061010991906104c9565b6102af565b005b34801561011c57600080fd5b50610137600480360381019061013291906104c9565b6103a7565b005b8273ffffffffffffffffffffffffffffffffffffffff1663a415bcad838360026000336040518663ffffffff1660e01b815260040161017c959493929190610768565b600060405180830381600087803b15801561019657600080fd5b505af11580156101aa573d6000803e3d6000fd5b50505050505050565b600060608473ffffffffffffffffffffffffffffffffffffffff1684846040516101de9291906107fa565b6000604051808303816000865af19150503d806000811461021b576040519150601f19603f3d011682016040523d82523d6000602084013e610220565b606091505b508092508193505050935093915050565b600060608473ffffffffffffffffffffffffffffffffffffffff16848460405161025c9291906107fa565b6000604051808303816000865af19150503d8060008114610299576040519150601f19603f3d011682016040523d82523d6000602084013e61029e565b606091505b508092508193505050935093915050565b8173ffffffffffffffffffffffffffffffffffffffff166323b872dd3385846040518463ffffffff1660e01b81526004016102ec93929190610813565b6020604051808303816000875af115801561030b573d6000803e3d6000fd5b505050506040513d601f19601f8201168201806040525081019061032f9190610876565b508273ffffffffffffffffffffffffffffffffffffffff1663e8eda9df83833360006040518563ffffffff1660e01b815260040161037094939291906108a3565b600060405180830381600087803b15801561038a57600080fd5b505af115801561039e573d6000803e3d6000fd5b50505050505050565b8273ffffffffffffffffffffffffffffffffffffffff1663095ea7b383836040518363ffffffff1660e01b81526004016103e29291906108e8565b6020604051808303816000875af1158015610401573d6000803e3d6000fd5b505050506040513d601f19601f820116820180604052508101906104259190610876565b50505050565b600080fd5b600080fd5b600073ffffffffffffffffffffffffffffffffffffffff82169050919050565b600061046082610435565b9050919050565b61047081610455565b811461047b57600080fd5b50565b60008135905061048d81610467565b92915050565b6000819050919050565b6104a681610493565b81146104b157600080fd5b50565b6000813590506104c38161049d565b92915050565b6000806000606084860312156104e2576104e161042b565b5b60006104f08682870161047e565b93505060206105018682870161047e565b9250506040610512868287016104b4565b9150509250925092565b600080fd5b600080fd5b600080fd5b60008083601f8401126105415761054061051c565b5b8235905067ffffffffffffffff81111561055e5761055d610521565b5b60208301915083600182028301111561057a57610579610526565b5b9250929050565b60008060006040848603121561059a5761059961042b565b5b60006105a88682870161047e565b935050602084013567ffffffffffffffff8111156105c9576105c8610430565b5b6105d58682870161052b565b92509250509250925092565b60008115159050919050565b6105f6816105e1565b82525050565b600081519050919050565b600082825260208201905092915050565b60005b8381101561063657808201518184015260208101905061061b565b60008484015250505050565b6000601f19601f8301169050919050565b600061065e826105fc565b6106688185610607565b9350610678818560208601610618565b61068181610642565b840191505092915050565b60006040820190506106a160008301856105ed565b81810360208301526106b38184610653565b90509392505050565b6106c581610455565b82525050565b6106d481610493565b82525050565b6000819050919050565b6000819050919050565b60006107096107046106ff846106da565b6106e4565b610493565b9050919050565b610719816106ee565b82525050565b6000819050919050565b600061ffff82169050919050565b600061075261074d6107488461071f565b6106e4565b610729565b9050919050565b61076281610737565b82525050565b600060a08201905061077d60008301886106bc565b61078a60208301876106cb565b6107976040830186610710565b6107a46060830185610759565b6107b160808301846106bc565b9695505050505050565b600081905092915050565b82818337600083830152505050565b60006107e183856107bb565b93506107ee8385846107c6565b82840190509392505050565b60006108078284866107d5565b91508190509392505050565b600060608201905061082860008301866106bc565b61083560208301856106bc565b61084260408301846106cb565b949350505050565b610853816105e1565b811461085e57600080fd5b50565b6000815190506108708161084a565b92915050565b60006020828403121561088c5761088b61042b565b5b600061089a84828501610861565b91505092915050565b60006080820190506108b860008301876106bc565b6108c560208301866106cb565b6108d260408301856106bc565b6108df6060830184610759565b95945050505050565b60006040820190506108fd60008301856106bc565b61090a60208301846106cb565b939250505056fea26469706673582212205a78a3767d2411b0bd274a1a51b7bf4a4700d861dde9a6ad8475755aca50982364736f6c63430008140033",
  "linkReferences": {},
  "deployedLinkReferences": {}
}